{
  "contractName": "Faucet",
  "abi": [
    {
      "anonymous": false,
      "inputs": [
        {
          "indexed": true,
          "internalType": "address",
          "name": "_addr",
          "type": "address"
        },
        {
          "indexed": false,
          "internalType": "uint256",
          "name": "_amount",
          "type": "uint256"
        }
      ],
      "name": "Donate",
      "type": "event"
    },
    {
      "inputs": [],
      "name": "userDonators",
      "outputs": [
        {
          "internalType": "uint256",
          "name": "",
          "type": "uint256"
        }
      ],
      "stateMutability": "view",
      "type": "function",
      "constant": true
    },
    {
      "inputs": [],
      "name": "userFunders",
      "outputs": [
        {
          "internalType": "uint256",
          "name": "",
          "type": "uint256"
        }
      ],
      "stateMutability": "view",
      "type": "function",
      "constant": true
    },
    {
      "inputs": [],
      "name": "addFunds",
      "outputs": [],
      "stateMutability": "payable",
      "type": "function",
      "payable": true
    },
    {
      "inputs": [
        {
          "internalType": "uint256",
          "name": "_amount",
          "type": "uint256"
        }
      ],
      "name": "donate",
      "outputs": [],
      "stateMutability": "payable",
      "type": "function",
      "payable": true
    },
    {
      "inputs": [
        {
          "internalType": "uint256",
          "name": "_withdrawAmount",
          "type": "uint256"
        }
      ],
      "name": "withdraw",
      "outputs": [],
      "stateMutability": "nonpayable",
      "type": "function"
    },
    {
      "inputs": [
        {
          "internalType": "uint256",
          "name": "_index",
          "type": "uint256"
        }
      ],
      "name": "getFunder",
      "outputs": [
        {
          "internalType": "address",
          "name": "",
          "type": "address"
        }
      ],
      "stateMutability": "view",
      "type": "function",
      "constant": true
    },
    {
      "inputs": [
        {
          "internalType": "uint256",
          "name": "_index",
          "type": "uint256"
        }
      ],
      "name": "getDonator",
      "outputs": [
        {
          "internalType": "address",
          "name": "",
          "type": "address"
        }
      ],
      "stateMutability": "view",
      "type": "function",
      "constant": true
    }
  ],
  "bytecode": "0x608060405234801561001057600080fd5b506109dc806100206000396000f3fe6080604052600436106100705760003560e01c8063a26759cb1161004e578063a26759cb14610106578063d7b4750c14610110578063e7cf7eea1461014d578063f14faf6f1461017857610070565b80632e1a7d4d146100755780636a5f73e91461009e5780637b66e17f146100c9575b600080fd5b34801561008157600080fd5b5061009c60048036038101906100979190610571565b610194565b005b3480156100aa57600080fd5b506100b361026e565b6040516100c091906105ad565b60405180910390f35b3480156100d557600080fd5b506100f060048036038101906100eb9190610571565b610274565b6040516100fd9190610609565b60405180910390f35b61010e6102f5565b005b34801561011c57600080fd5b5061013760048036038101906101329190610571565b610364565b6040516101449190610609565b60405180910390f35b34801561015957600080fd5b506101626103e4565b60405161016f91906105ad565b60405180910390f35b610192600480360381019061018d9190610571565b6103ea565b005b8067016345785d8a00008111156101e0576040517f08c379a00000000000000000000000000000000000000000000000000000000081526004016101d7906106a7565b60405180910390fd5b81471015610223576040517f08c379a000000000000000000000000000000000000000000000000000000000815260040161021a90610713565b60405180910390fd5b3373ffffffffffffffffffffffffffffffffffffffff166108fc839081150290604051600060405180830381858888f19350505050158015610269573d6000803e3d6000fd5b505050565b60015481565b600060015482106102ba576040517f08c379a00000000000000000000000000000000000000000000000000000000081526004016102b19061077f565b60405180910390fd5b6003600083815260200190815260200160002060009054906101000a900473ffffffffffffffffffffffffffffffffffffffff169050919050565b6000806000815480929190610309906107ce565b919050559050336002600083815260200190815260200160002060006101000a81548173ffffffffffffffffffffffffffffffffffffffff021916908373ffffffffffffffffffffffffffffffffffffffff16021790555050565b6000805482106103a9576040517f08c379a00000000000000000000000000000000000000000000000000000000081526004016103a090610862565b60405180910390fd5b6002600083815260200190815260200160002060009054906101000a900473ffffffffffffffffffffffffffffffffffffffff169050919050565b60005481565b8034101561042d576040517f08c379a0000000000000000000000000000000000000000000000000000000008152600401610424906108f4565b60405180910390fd5b66038d7ea4c68000811015610477576040517f08c379a000000000000000000000000000000000000000000000000000000000815260040161046e90610986565b60405180910390fd5b60006001600081548092919061048c906107ce565b919050559050336003600083815260200190815260200160002060006101000a81548173ffffffffffffffffffffffffffffffffffffffff021916908373ffffffffffffffffffffffffffffffffffffffff1602179055503373ffffffffffffffffffffffffffffffffffffffff167f0553260a2e46b0577270d8992db02d30856ca880144c72d6e9503760946aef138360405161052a91906105ad565b60405180910390a25050565b600080fd5b6000819050919050565b61054e8161053b565b811461055957600080fd5b50565b60008135905061056b81610545565b92915050565b60006020828403121561058757610586610536565b5b60006105958482850161055c565b91505092915050565b6105a78161053b565b82525050565b60006020820190506105c2600083018461059e565b92915050565b600073ffffffffffffffffffffffffffffffffffffffff82169050919050565b60006105f3826105c8565b9050919050565b610603816105e8565b82525050565b600060208201905061061e60008301846105fa565b92915050565b600082825260208201905092915050565b7f54686520776974686472617720616d6f756e74206d757374206265206c65737360008201527f207468616e206f7220657175616c20746f20302e312045544821000000000000602082015250565b6000610691603a83610624565b915061069c82610635565b604082019050919050565b600060208201905081810360008301526106c081610684565b9050919050565b7f496e73756666696369656e7420636f6e74726163742062616c616e6365000000600082015250565b60006106fd601d83610624565b9150610708826106c7565b602082019050919050565b6000602082019050818103600083015261072c816106f0565b9050919050565b7f446f6e61746f72206f7574206f6620626f756e64730000000000000000000000600082015250565b6000610769601583610624565b915061077482610733565b602082019050919050565b600060208201905081810360008301526107988161075c565b9050919050565b7f4e487b7100000000000000000000000000000000000000000000000000000000600052601160045260246000fd5b60006107d98261053b565b91507fffffffffffffffffffffffffffffffffffffffffffffffffffffffffffffffff820361080b5761080a61079f565b5b600182019050919050565b7f46756e646572206f7574206f6620626f756e6473000000000000000000000000600082015250565b600061084c601483610624565b915061085782610816565b602082019050919050565b6000602082019050818103600083015261087b8161083f565b9050919050565b7f53656e742076616c756520646f6573206e6f74206d617463682074686520737060008201527f6563696669656420616d6f756e742e0000000000000000000000000000000000602082015250565b60006108de602f83610624565b91506108e982610882565b604082019050919050565b6000602082019050818103600083015261090d816108d1565b9050919050565b7f596f757220646f6e6174696f6e206d757374206265206772656174657220746860008201527f616e20302e303031204554482100000000000000000000000000000000000000602082015250565b6000610970602d83610624565b915061097b82610914565b604082019050919050565b6000602082019050818103600083015261099f81610963565b905091905056fea26469706673582212204374b2a80f9503e851370ceef9ee865a7958658499c01acf14ea0fd6eea9a76e64736f6c634300080d0033",
  "immutableReferences": {},
  "source": "// SPDX-License-Identifier: MIT\npragma solidity >=0.4.22 <0.9.0;\n\ncontract Faucet {\n    uint public userFunders;\n    uint public userDonators;\n\n    // Modifier to limit withdraw amount to a max of 0.1 ETH\n    modifier limitedAmount(uint _amount) {\n        require(_amount <= 0.1 ether, \"The withdraw amount must be less than or equal to 0.1 ETH!\");\n        _;\n    } \n\n    // Events\n    event Donate(address indexed _addr, uint _amount);\n\n    mapping(uint => address) private funders;\n    mapping(uint => address) private donators;\n\n    // Function for users to add funds\n    function addFunds() public payable {\n        uint index = userFunders++;\n        funders[index] = msg.sender;\n    }\n\n    // Function for users to donate a specified amount\n    function donate(uint _amount) public payable {\n        require(msg.value >= _amount, \"Sent value does not match the specified amount.\");\n        require(_amount >= 0.001 ether, \"Your donation must be greater than 0.001 ETH!\");\n\n        uint index = userDonators++;\n        donators[index] = msg.sender;\n\n        emit Donate(msg.sender, _amount);\n    }\n\n    // Function to withdraw funds with limited withdrawal amount\n    function withdraw(uint _withdrawAmount) public limitedAmount(_withdrawAmount) {\n        require(address(this).balance >= _withdrawAmount, \"Insufficient contract balance\");\n        payable(msg.sender).transfer(_withdrawAmount);\n    }\n\n    // Get the address of a funder by index\n    function getFunder(uint _index) public view returns(address) {\n        require(_index < userFunders, \"Funder out of bounds\");\n        return funders[_index];\n    }\n\n    // Get the address of a donator by index\n    function getDonator(uint _index) public view returns(address) {\n        require(_index < userDonators, \"Donator out of bounds\");\n        return donators[_index];\n    }\n}\n",
  "sourcePath": "E:\\Coding\\Solidity\\truffle\\truffle-ta\\my-app\\truffle\\contracts\\Faucet.sol",
  "compiler": {
    "name": "solc",
    "version": "0.8.13+commit.abaa5c0e.Emscripten.clang"
  },
  "schemaVersion": "3.4.16",
  "updatedAt": "2024-11-07T11:38:50.755Z",
  "networkType": "ethereum",
  "devdoc": {
    "kind": "dev",
    "methods": {},
    "version": 1
  },
  "userdoc": {
    "kind": "user",
    "methods": {},
    "version": 1
  }
}